{
  "contractName": "DappTokenSale",
  "abi": [
    {
      "constant": true,
      "inputs": [],
      "name": "tokensSold",
      "outputs": [
        {
          "name": "",
          "type": "uint256"
        }
      ],
      "payable": false,
      "stateMutability": "view",
      "type": "function",
      "signature": "0x518ab2a8"
    },
    {
      "constant": true,
      "inputs": [],
      "name": "tokenContract",
      "outputs": [
        {
          "name": "",
          "type": "address"
        }
      ],
      "payable": false,
      "stateMutability": "view",
      "type": "function",
      "signature": "0x55a373d6"
    },
    {
      "constant": true,
      "inputs": [],
      "name": "tokenPrice",
      "outputs": [
        {
          "name": "",
          "type": "uint256"
        }
      ],
      "payable": false,
      "stateMutability": "view",
      "type": "function",
      "signature": "0x7ff9b596"
    },
    {
      "inputs": [
        {
          "name": "_tokenContract",
          "type": "address"
        },
        {
          "name": "_tokenPrice",
          "type": "uint256"
        }
      ],
      "payable": false,
      "stateMutability": "nonpayable",
      "type": "constructor",
      "signature": "constructor"
    },
    {
      "anonymous": false,
      "inputs": [
        {
          "indexed": false,
          "name": "_buyer",
          "type": "address"
        },
        {
          "indexed": false,
          "name": "_amount",
          "type": "uint256"
        }
      ],
      "name": "Sell",
      "type": "event",
      "signature": "0x5e5e995ce3133561afceaa51a9a154d5db228cd7525d34df5185582c18d3df09"
    },
    {
      "constant": false,
      "inputs": [
        {
          "name": "_numberOfTokens",
          "type": "uint256"
        }
      ],
      "name": "buyTokens",
      "outputs": [],
      "payable": true,
      "stateMutability": "payable",
      "type": "function",
      "signature": "0x3610724e"
    }
  ],
  "bytecode": "0x608060405234801561001057600080fd5b5060405160408061039083398101604052805160209091015160008054600160a060020a0319908116331790915560018054600160a060020a0390941693909116929092179091556002556103268061006a6000396000f3006080604052600436106100615763ffffffff7c01000000000000000000000000000000000000000000000000000000006000350416633610724e8114610066578063518ab2a81461007357806355a373d61461009a5780637ff9b596146100d8575b600080fd5b6100716004356100ed565b005b34801561007f57600080fd5b506100886102a4565b60408051918252519081900360200190f35b3480156100a657600080fd5b506100af6102aa565b6040805173ffffffffffffffffffffffffffffffffffffffff9092168252519081900360200190f35b3480156100e457600080fd5b506100886102c6565b6100f9816002546102cc565b341461010457600080fd5b600154604080517f70a082310000000000000000000000000000000000000000000000000000000081523060048201529051839273ffffffffffffffffffffffffffffffffffffffff16916370a082319160248083019260209291908290030181600087803b15801561017657600080fd5b505af115801561018a573d6000803e3d6000fd5b505050506040513d60208110156101a057600080fd5b505110156101ad57600080fd5b600154604080517fa9059cbb00000000000000000000000000000000000000000000000000000000815233600482015260248101849052905173ffffffffffffffffffffffffffffffffffffffff9092169163a9059cbb916044808201926020929091908290030181600087803b15801561022757600080fd5b505af115801561023b573d6000803e3d6000fd5b505050506040513d602081101561025157600080fd5b5051151561025e57600080fd5b6003805482019055604080513381526020810183905281517f5e5e995ce3133561afceaa51a9a154d5db228cd7525d34df5185582c18d3df09929181900390910190a150565b60035481565b60015473ffffffffffffffffffffffffffffffffffffffff1681565b60025481565b60008115806102e95750508082028282828115156102e657fe5b04145b15156102f457600080fd5b929150505600a165627a7a723058208f399d1cbf5585a8c0334c943310083e7fca6be8ed63409fa832d8be2a75448d0029",
  "source": "pragma solidity ^0.4.23;\n\n\nimport \"./CashFinex.sol\";\n\ncontract DappTokenSale {\n\n    address admin;\n    CashFinex public tokenContract;\n    uint256 public tokenPrice;\n    uint256 public tokensSold;\n\n    event Sell(address _buyer, uint256 _amount);\n\n    constructor(CashFinex _tokenContract,uint256 _tokenPrice) public {\n        admin = msg.sender;\n        tokenContract = _tokenContract;\n        tokenPrice = _tokenPrice;\n\n    }\n\n    function multiply(uint x, uint y) internal pure returns (uint z) {\n        require(y == 0 || (z = x * y) / y == x);\n    }\n    function buyTokens(uint256 _numberOfTokens) public payable {\n\n       require(msg.value == multiply(_numberOfTokens, tokenPrice));\n        require(tokenContract.balanceOf(this) >= _numberOfTokens);\n        require(tokenContract.transfer(msg.sender, _numberOfTokens));\n\n        tokensSold += _numberOfTokens;\n\n        emit Sell(msg.sender, _numberOfTokens);\n    }\n\n\n}\n",
  "sourcePath": "/Users/memohan/Desktop/tokencode/contracts/DappTokenSale.sol",
  "compiler": {
    "name": "solc",
    "version": "0.4.25+commit.59dbf8f1.Emscripten.clang"
  },
  "schemaVersion": "3.0.0-beta.1",
  "updatedAt": "2018-11-09T10:58:45.891Z"
}